:100000000C9462000C948A000C948A000C948A0070
:100010000C948A000C948A000C948A000C948A0038
:100020000C948A000C948A000C948A000C948A0028
:100030000C948A000C948A000C948A000C948A0018
:100040000C9432010C948A000C94A2020C94F002DD
:100050000C948A000C948A000C948A000C948A00F8
:100060000C948A000C948A000000000024002700F1
:100070002A0000000000250028002B0000000000DE
:1000800023002600290004040404040404040202DA
:100090000202020203030303030301020408102007
:1000A0004080010204081020010204081020000012
:1000B0000007000201000003040600000000000029
:1000C00000005C0411241FBECFEFD8E0DEBFCDBF1F
:1000D00011E0A0E0B1E0EAE2FAE002C005900D9282
:1000E000A631B107D9F712E0A6E1B1E001C01D9237
:1000F000AA3CB107E1F710E0C4ECD0E004C02297BD
:10010000FE010E940F05C23CD107C9F70E94B2044C
:100110000C9413050C9400001F93182F61E00E94AB
:100120004D0262E370E080E090E00E947A01812F4E
:1001300060E00E944D0262E370E080E090E00E9487
:100140007A01812F61E00E944D0262E370E080E05D
:1001500090E00E947A01812F60E00E944D0262E3EC
:1001600070E080E090E00E947A01812F61E00E94BF
:100170004D0262E370E080E090E00E947A01812FFE
:1001800060E00E944D0262E370E080E090E00E9437
:100190007A01812F61E00E944D0262E370E080E00D
:1001A00090E00E947A01812F60E00E944D0262E39C
:1001B00070E080E090E00E947A011F9108951F9303
:1001C00010921602109215028091000160E00E94C8
:1001D0004D028091020160E00E944D0288EA92E0A7
:1001E0000E94B20318161906ECF488EA92E00E9405
:1001F000E303182F8091000161E00E944D0269E144
:1002000070E080E090E00E947A0180911502909168
:100210001602FC01EA5EFE4F1083019690931602CF
:10022000809315021F91089588EA92E040E855E214
:1002300060E070E00E942B038091000161E00E9469
:100240000E028091020161E00E940E028091040181
:1002500061E00E940E0280910401909105010E94CC
:100260008C0008951F920F920FB60F9211242F93B6
:100270003F938F939F93AF93BF9380911B02909175
:100280001C02A0911D02B0911E0230911F02019626
:10029000A11DB11D232F2D5F2D3720F02D57019665
:1002A000A11DB11D20931F0280931B0290931C027D
:1002B000A0931D02B0931E02809117029091180224
:1002C000A0911902B0911A020196A11DB11D80934F
:1002D000170290931802A0931902B0931A02BF91CB
:1002E000AF919F918F913F912F910F900FBE0F90E3
:1002F0001F9018959B01AC017FB7F894809117026D
:1003000090911802A0911902B0911A0266B5A89BAB
:1003100005C06F3F19F00196A11DB11D7FBFBA2F17
:10032000A92F982F8827860F911DA11DB11D62E06E
:10033000880F991FAA1FBB1F6A95D1F7BC012DC05A
:10034000FFB7F8948091170290911802A0911902BA
:10035000B0911A02E6B5A89B05C0EF3F19F00196CF
:10036000A11DB11DFFBFBA2FA92F982F88278E0F6F
:10037000911DA11DB11DE2E0880F991FAA1FBB1F8F
:10038000EA95D1F7861B970B885E9340C8F22150FF
:1003900030404040504068517C4F211531054105A7
:1003A000510571F60895789484B5826084BD84B552
:1003B000816084BD85B5826085BD85B5816085BD60
:1003C000EEE6F0E0808181608083E1E8F0E0108279
:1003D000808182608083808181608083E0E8F0E0BA
:1003E000808181608083E1EBF0E0808184608083A4
:1003F000E0EBF0E0808181608083EAE7F0E08081DB
:10040000846080838081826080838081816080833A
:100410008081806880831092C1000895CF93DF931C
:10042000482F50E0CA0186569F4FFC0134914A572D
:100430005F4FFA018491882369F190E0880F991F3A
:10044000FC01E859FF4FA591B491FC01EE58FF4F14
:10045000C591D491662351F42FB7F8948C91932FC2
:10046000909589238C93888189230BC0623061F435
:100470002FB7F8948C91932F909589238C93888132
:10048000832B88832FBF06C09FB7F8948C91832B52
:100490008C939FBFDF91CF910895482F50E0CA0100
:1004A00082559F4FFC012491CA0186569F4FFC0143
:1004B00094914A575F4FFA013491332309F440C0B5
:1004C000222351F1233071F0243028F42130A1F09F
:1004D000223011F514C02630B1F02730C1F024309D
:1004E000D9F404C0809180008F7703C08091800090
:1004F0008F7D8093800010C084B58F7702C084B553
:100500008F7D84BD09C08091B0008F7703C080913A
:10051000B0008F7D8093B000E32FF0E0EE0FFF1F5F
:10052000EE58FF4FA591B4912FB7F894662321F4AC
:100530008C919095892302C08C91892B8C932FBF2D
:10054000089508951F920F920FB60F9211242F93C2
:100550003F934F938F939F93EF93FF938091C000AE
:1005600082FD1DC04091C600209160023091610261
:100570002F5F3F4F2F733070809162029091630222
:100580002817390771F0E0916002F0916102E05E96
:10059000FD4F4083309361022093600202C080913E
:1005A000C600FF91EF919F918F914F913F912F91B5
:1005B0000F900FBE0F901F901895E091B402F0912C
:1005C000B502E05CFF4F8191919120813181821BC6
:1005D000930B8F739070892B11F00E94A1020895E4
:1005E0001F920F920FB60F9211242F933F938F9368
:1005F0009F93EF93FF932091A4023091A5028091E5
:10060000A6029091A7022817390731F48091C10002
:100610008F7D8093C10014C0E091A602F091A702E3
:10062000EC59FD4F20818091A6029091A70201967E
:100630008F7390709093A7028093A6022093C600B8
:10064000FF91EF919F918F913F912F910F900FBE4E
:100650000F901F901895AF92BF92DF92EF92FF928A
:100660000F931F93CF93DF93EC017A018B01DD246D
:10067000403081EE580780E0680780E0780711F08D
:10068000DD24D39491E0A92EB12CEC89FD89DD20E5
:1006900069F0C50108A002C0880F991F0A94E2F70B
:1006A000808360E079E08DE390E005C0108260E82F
:1006B00074E88EE190E0A80197010E94EB042150BC
:1006C000304040405040569547953795279580E1FA
:1006D0002030380720F0DD2011F0DD24D6CFE88966
:1006E000F9893083EA89FB89208319A2EE89FF8981
:1006F000408121E030E0C9010C8C02C0880F991FB5
:100700000A94E2F7482B4083EE89FF894081C901B2
:100710000D8C02C0880F991F0A94E2F7482B408382
:10072000EE89FF894081C9010E8C02C0880F991F94
:100730000A94E2F7482B4083EE89FF8980810F8C71
:1007400002C0220F331F0A94E2F72095282320834A
:10075000DF91CF911F910F91FF90EF90DF90BF90AD
:10076000AF900895DC011C96ED91FC911D97E05C23
:10077000FF4F2191319180819181281B390B2F737B
:100780003070C9010895DC011C96ED91FC911D9714
:10079000E05CFF4F20813181E054F040DF01AE5B2F
:1007A000BF4F8D919C9111972817390719F42FEF9E
:1007B0003FEF07C08D919C91E80FF91F8081282F92
:1007C00030E0C9010895DC011C96ED91FC911D9764
:1007D000E05CFF4F20813181E054F040DF01AE5BEF
:1007E000BF4F8D919C9111972817390719F42FEF5E
:1007F0003FEF10C08D919C911197E80FF91F208158
:100800008D919C91119701968F73907011969C9386
:100810008E9330E0C9010895DC0191968C919197F7
:10082000882339F05496ED91FC915597808186FF8D
:10083000F9CF91961C920895CF93DF93EC01EE854A
:10084000FF85E05CFF4F20813181E054F0402F5F55
:100850003F4F2F733070DF01AE5BBF4F8D919C9186
:10086000119728173907D1F3E05CFF4F8081918100
:10087000E054F040E80FF91F6083EE85FF85E05CEF
:10088000FF4F31832083EE89FF89208181E090E052
:100890000F8C02C0880F991F0A94E2F7282B20833F
:1008A00081E089A3EC89FD8980818064808381E077
:1008B00090E0DF91CF9108951092AB021092AA02BE
:1008C00088EE93E0A0E0B0E08093AC029093AD029C
:1008D000A093AE02B093AF028AE091E09093A90298
:1008E0008093A80280E292E09093B5028093B402D4
:1008F00084E692E09093B7028093B60285EC90E094
:100900009093B9028093B80284EC90E09093BB027C
:100910008093BA0280EC90E09093BD028093BC0279
:1009200081EC90E09093BF028093BE0282EC90E055
:100930009093C1028093C00286EC90E09093C30232
:100940008093C20284E08093C40283E08093C50256
:1009500087E08093C60285E08093C70281E08093A0
:10096000C8020895CF93DF930E94D3010E9414011F
:10097000CDEDD2E00E94DF002097E1F30E94DD027E
:10098000F9CFCF92DF92EF92FF920F931F93CF9305
:10099000DF937C016B018A01C0E0D0E00FC0D6017B
:1009A0006D916D01D701ED91FC910190F081E02DE9
:1009B000C7010995C80FD91F015010400115110535
:1009C00071F7CE01DF91CF911F910F91FF90EF90C2
:1009D000DF90CF900895A1E21A2EAA1BBB1BFD0148
:1009E0000DC0AA1FBB1FEE1FFF1FA217B307E4070E
:1009F000F50720F0A21BB30BE40BF50B661F771F66
:100A0000881F991F1A9469F7609570958095909545
:100A10009B01AC01BD01CF010895EE0FFF1F0590B2
:0A0A2000F491E02D0994F894FFCF43
:100A2A00050006000D00000000001C04C104B2030A
:060A3A00E303C3030C04FA
:00000001FF
