:100000000C9462000C948A000C948A000C948A0070
:100010000C948A000C948A000C948A000C948A0038
:100020000C948A000C948A000C948A000C94F502BB
:100030000C948A000C948A000C948A000C948A0018
:100040000C94B3030C948A000C948A000C948A00DC
:100050000C948A000C948A000C948A000C948A00F8
:100060000C948A000C948A000000000024002700F1
:100070002A0000000000250028002B0000000000DE
:1000800023002600290004040404040404040202DA
:100090000202020203030303030301020408102007
:1000A0004080010204081020010204081020000012
:1000B0000007000201000003040600000000000029
:1000C00000008C0011241FBECFEFD8E0DEBFCDBFF3
:1000D00011E0A0E0B1E0E6EBFEE002C005900D9279
:1000E000A030B107D9F711E0A0E0B1E001C01D9246
:1000F000A933B107E1F710E0C4ECD0E004C02297C7
:10010000FE010E945507C23CD107C9F70E94220593
:100110000C9459070C94000082E091E00E941902AF
:1001200085E091E00E941902089585E091E06CED70
:1001300075E00E9433028CED95E090930901809365
:1001400008010895EF92FF920F931F93AA2797FD3E
:10015000A095BA2FBC01CD010E94310620E030E00D
:1001600048EC52E40E94960520E030E04AEF53E468
:100170000E94BD0620E030E84BEB54E40E943205BB
:100180000E94FE057B018C0185E091E0B7010E9491
:100190003302F0920901E09208011F910F91FF9044
:1001A000EF90089582E091E06CED75E00E943302DB
:1001B0000895AA2797FDA095BA2FBC01CD010E94F2
:1001C000310620E030E048EC52E40E94960520E041
:1001D00030E04AEF53E40E94BD0620E030E84BEBEC
:1001E00054E40E9432050E94FE059B01AC0182E0AE
:1001F00091E0B9010E9433020895AA2797FDA095C6
:10020000BA2FBC01CD010E94310620E030E048EC5D
:1002100052E40E94960520E030E04AEF53EC0E9441
:10022000BD0620E030E84BEB54E40E9432050E940A
:10023000FE059B01AC0182E091E0B9010E9433020E
:100240000895EF92FF920F931F93CF93DF93AA2706
:1002500097FDA095BA2FBC01CD010E94310620E088
:1002600030E048EC52E40E94960520E030E04AEF8E
:1002700053EC0E94BD0620E030E84BEB54E40E94B2
:1002800032050E94FE057B018C01EB018091080183
:10029000909109018D5D9540DCF00E94950062E32C
:1002A00070E080E090E00E94FB0385E091E0B70100
:1002B0000E94330262E370E080E090E00E94FB0362
:1002C0000E94950062E370E080E090E00E94FB03F2
:1002D00085E091E0BE010E943302D0930901C093F2
:1002E0000801DF91CF911F910F91FF90EF9008953A
:1002F000809100019091010102970CF087C00E944B
:10030000D2000E94950089E190E00E94FD0089E101
:1003100090E00E94A20068EE73E080E090E00E940E
:10032000FB0382E390E00E94FD0082E390E00E94E4
:10033000A20068EE73E080E090E00E94FB038BE493
:1003400090E00E94FD008BE490E00E94A20068EE25
:1003500073E080E090E00E94FB0384E690E00E945E
:10036000FD0084E690E00E94A20068EE73E080E069
:1003700090E00E94FB030E94D2000E94950068EE6C
:1003800073E080E090E00E94FB0389E190E00E942E
:10039000D90089E190E00E94210168EE73E080E0DD
:1003A00090E00E94FB0382E390E00E94D90082E388
:1003B00090E00E94210168EE73E080E090E00E94EE
:1003C000FB038BE490E00E94D9008BE490E00E9454
:1003D000210168EE73E080E090E00E94FB0384E678
:1003E00090E00E94D90084E690E00E94210168EE2E
:1003F00073E080E090E00E94FB0380910001909107
:100400000101019690930101809300010E94D200A6
:100410000E949500089582E091E069E070E00E94FA
:10042000EE0208950E940B02109201011092000149
:100430000895FC0180910A018C3090F480838F5FD5
:1004400080930A01815090E0FC01EE0FFF1FE80F3E
:10045000F91FE55FFE4F88EB9BE09283818308954F
:100460008FEF80830895FC0120812C30B8F58181C5
:10047000992787FD909548E850E0481B590B440F99
:10048000551F440F551F6417750784F08281992703
:1004900087FD909548E552E0481B590B440F551FC6
:1004A000440F551F641775070CF4AB0142505040C0
:1004B000CA01AA2797FDA095BA2F880F991FAA1FD6
:1004C000BB1F4FB7F89430E0F901EE0FFF1FE20FAA
:1004D000F31FE55FFE4F928381834FBF0895CF9254
:1004E000DF92EF92FF921F93CF93DF93EC01162FD1
:1004F0007A01690188818C3008F064C0862F61E040
:100500000E948F04888190E0FC01EE0FFF1FE80F2E
:10051000F91FE55FFE4F1F738081807C812B8083F4
:1005200080E292E08E199F0964E070E00E942C073F
:10053000698380E699E08C199D0964E070E00E946F
:100540002C076A83A8818A2F6CE00E942007682FFD
:1005500070E0AB01440F551F460F571F440F551F46
:10056000440F551F20E030E0C901840F951FFC01A6
:10057000EE0FFF1FE80FF91FE55FFE4F808186FD3C
:1005800015C02F5F3F4F2C30310571F724C01092FA
:10059000800082E080938100109285001092840098
:1005A000B19A80916F00826080936F008A2F90E0F3
:1005B000FC01EE0FFF1FE80FF91FE55FFE4F808182
:1005C000806480838881DF91CF911F91FF90EF90AD
:1005D000DF90CF900895672BD1F2E8CF40E252E050
:1005E00020E639E00E946F0208951F920F920FB625
:1005F0000F9211242F933F934F935F936F937F93A9
:100600008F939F93AF93BF93EF93FF9380912F01AD
:1006100087FF05C010928500109284002BC02091A6
:100620002F01332727FD309580910A0190E028178C
:10063000390704F580912F01992787FD9095FC01DA
:10064000EE0FFF1FE80FF91FE55FFE4F808186FF69
:1006500011C080912F01992787FD9095FC01EE0F25
:10066000FF1FE80FF91FE55FFE4F80818F7360E089
:100670000E94CE0480912F018F5F80932F012091E3
:100680002F01332727FD309580910A0190E028172C
:1006900039070CF04EC080912F018C300CF049C00E
:1006A000209184003091850080912F01992787FD4A
:1006B0009095FC01EE0FFF1FE80FF91FE55FFE4F5D
:1006C00081819281280F391F3093890020938800FF
:1006D00080912F01992787FD9095FC01EE0FFF1F58
:1006E000E80FF91FE55FFE4F808186FF2BC08091E8
:1006F0002F01992787FD9095FC01EE0FFF1FE80F52
:10070000F91FE55FFE4F80818F7361E00E94CE0488
:1007100019C080E49CE905C0809184009091850017
:10072000049690938900809388008FEF80932F0127
:1007300009C08091840090918500049680549C4962
:1007400040F3EACFFF91EF91BF91AF919F918F91CD
:100750007F916F915F914F913F912F910F900FBEBD
:100760000F901F9018951F920F920FB60F921124A1
:100770002F933F938F939F93AF93BF9380913401B7
:1007800090913501A0913601B09137013091380137
:100790000196A11DB11D232F2D5F2D3720F02D5760
:1007A0000196A11DB11D20933801809334019093CF
:1007B0003501A0933601B0933701809130019091BB
:1007C0003101A0913201B09133010196A11DB11DFB
:1007D0008093300190933101A0933201B0933301A3
:1007E000BF91AF919F918F913F912F910F900FBE2D
:1007F0000F901F9018959B01AC017FB7F8948091E2
:10080000300190913101A0913201B091330166B570
:10081000A89B05C06F3F19F00196A11DB11D7FBFB8
:10082000BA2FA92F982F8827860F911DA11DB11DC2
:1008300062E0880F991FAA1FBB1F6A95D1F7BC0100
:100840002DC0FFB7F8948091300190913101A091B3
:100850003201B0913301E6B5A89B05C0EF3F19F016
:100860000196A11DB11DFFBFBA2FA92F982F882770
:100870008E0F911DA11DB11DE2E0880F991FAA1FC7
:10088000BB1FEA95D1F7861B970B885E9340C8F291
:10089000215030404040504068517C4F2115310577
:1008A0004105510571F60895789484B5826084BD40
:1008B00084B5816084BD85B5826085BD85B5816064
:1008C00085BDEEE6F0E0808181608083E1E8F0E0C4
:1008D0001082808182608083808181608083E0E8F3
:1008E000F0E0808181608083E1EBF0E080818460D2
:1008F0008083E0EBF0E0808181608083EAE7F0E0D4
:100900008081846080838081826080838081816037
:1009100080838081806880831092C1000895CF9386
:10092000DF93482F50E0CA0186569F4FFC01349157
:100930004A575F4FFA018491882369F190E0880F4C
:10094000991FFC01E859FF4FA591B491FC01EE58A5
:10095000FF4FC591D491662351F42FB7F8948C9131
:10096000932F909589238C93888189230BC06230C3
:1009700061F42FB7F8948C91932F909589238C93E1
:100980008881832B88832FBF06C09FB7F8948C91F2
:10099000832B8C939FBFDF91CF910895482F50E018
:1009A000CA0182559F4FFC012491CA0186569F4F70
:1009B000FC0194914A575F4FFA013491332309F4B3
:1009C00040C0222351F1233071F0243028F421302B
:1009D000A1F0223011F514C02630B1F02730C1F05B
:1009E0002430D9F404C0809180008F7703C08091B7
:1009F00080008F7D8093800010C084B58F7702C007
:100A000084B58F7D84BD09C08091B0008F7703C00D
:100A10008091B0008F7D8093B000E32FF0E0EE0F67
:100A2000FF1FEE58FF4FA591B4912FB7F89466239E
:100A300021F48C919095892302C08C91892B8C9301
:100A40002FBF0895CF93DF930E9454040E94120297
:100A5000C0E0D0E00E9478012097E1F30E940000FE
:100A6000F9CF5058BB27AA270ED04DC13ED130F048
:100A700043D120F031F49F3F11F41EF433C10EF442
:100A8000E095E7FB29C1E92F4FD180F3BA17620740
:100A900073078407950718F071F49EF567C10EF48B
:100AA000E0950B2EBA2FA02D0B01B90190010C017E
:100AB000CA01A0011124FF27591B99F0593F50F496
:100AC000503E68F11A16F040A22F232F342F4427EE
:100AD000585FF3CF469537952795A795F0405395E6
:100AE000C9F77EF41F16BA0B620B730B840BBAF0B6
:100AF0009150A1F0FF0FBB1F661F771F881FC2F721
:100B00000EC0BA0F621F731F841F48F48795779534
:100B10006795B795F7959E3F08F0B3CF9395880FEB
:100B200008F09927EE0F9795879508950CD0EBC0A4
:100B3000E3D040F0DAD030F021F45F3F19F0CCC0C0
:100B4000511115C1CFC0F0D098F39923C9F35523A3
:100B5000B1F3951B550BBB27AA27621773078407B0
:100B600038F09F5F5F4F220F331F441FAA1FA9F366
:100B700033D00E2E3AF0E0E830D091505040E69558
:100B8000001CCAF729D0FE2F27D0660F771F881FB9
:100B9000BB1F261737074807AB07B0E809F0BB0BA8
:100BA000802DBF01FF2793585F4F2AF09E3F5105CC
:100BB00068F092C0DCC05F3FECF3983EDCF38695B2
:100BC00077956795B795F7959F5FC9F7880F911D42
:100BD0009695879597F90895E1E0660F771F881F2E
:100BE000BB1F621773078407BA0720F0621B730BE1
:100BF000840BBA0BEE1F88F7E095089504D0689433
:100C0000B111B5C0089598D088F09F5790F0B92FD2
:100C10009927B751A0F0D1F0660F771F881F991F51
:100C20001AF0BA95C9F712C0B13081F09FD0B1E087
:100C300008959CC0672F782F8827B85F39F0B93F97
:100C4000CCF3869577956795B395D9F73EF4909553
:100C50008095709561957F4F8F4F9F4F0895E894D1
:100C600009C097FB3EF490958095709561957F4FF4
:100C70008F4F9F4F9923A9F0F92F96E9BB279395A2
:100C8000F695879577956795B795F111F8CFFAF4B2
:100C9000BB0F11F460FF1BC06F5F7F4F8F4F9F4FE3
:100CA00016C0882311F096E911C0772321F09EE841
:100CB000872F762F05C0662371F096E8862F70E0A7
:100CC00060E02AF09A95660F771F881FDAF7880F81
:100CD0009695879597F9089597F99F6780E870E052
:100CE00060E008959FEF80EC089500240A941616A2
:100CF000170618060906089500240A94121613060A
:100D0000140605060895092E0394000C11F4882397
:100D100052F0BB0F40F4BF2B11F460FF04C06F5FB3
:100D20007F4F8F4F9F4F089557FD9058440F551F89
:100D300059F05F3F71F04795880F97FB991F61F05D
:100D40009F3F79F087950895121613061406551FD4
:100D5000F2CF4695F1DF08C0161617061806991F40
:100D6000F1CF86957105610508940895E894BB2735
:100D700066277727CB0197F908950BD0C4CFB5DF4D
:100D800028F0BADF18F0952309F0A6CFABCF1124D5
:100D9000EECFCADFA0F3959FD1F3950F50E0551F1A
:100DA000629FF001729FBB27F00DB11D639FAA27C0
:100DB000F00DB11DAA1F649F6627B00DA11D661F0F
:100DC000829F2227B00DA11D621F739FB00DA11D30
:100DD000621F839FA00D611D221F749F3327A00DEA
:100DE000611D231F849F600D211D822F762F6A2F86
:100DF00011249F5750408AF0E1F088234AF0EE0F0B
:100E0000FF1FBB1F661F771F881F91505040A9F717
:100E10009E3F510570F060CFAACF5F3FECF3983E44
:100E2000DCF3869577956795B795F795E7959F5F7E
:100E3000C1F7FE2B880F911D9695879597F9089518
:100E4000991B79E004C0991F961708F0961B881F1C
:100E50007A95C9F78095089597FB092E07260AD041
:100E600077FD04D00CD006D000201AF4709561955F
:100E70007F4F0895F6F7909581959F4F0895AA1B8F
:100E8000BB1B51E107C0AA1FBB1FA617B70710F075
:100E9000A61BB70B881F991F5A95A9F780959095A7
:100EA000BC01CD010895EE0FFF1F0590F491E02DD8
:060EB0000994F894FFCF45
:00000001FF
