:100000000C9462000C948A000C948A000C948A0070
:100010000C948A000C948A000C948A000C948A0038
:100020000C948A000C948A000C948A000C94A3010E
:100030000C948A000C948A000C948A000C948A0018
:100040000C9461020C948A000C948A000C948A002F
:100050000C948A000C948A000C948A000C948A00F8
:100060000C948A000C948A000000000024002700F1
:100070002A0000000000250028002B0000000000DE
:1000800023002600290004040404040404040202DA
:100090000202020203030303030301020408102007
:1000A0004080010204081020010204081020000012
:1000B0000007000201000003040600000000000029
:1000C00000008C0011241FBECFEFD8E0DEBFCDBFF3
:1000D00011E0A0E0B1E0E4E3F8E002C005900D9289
:1000E000A030B107D9F711E0A0E0B1E001C01D9246
:1000F000A433B107E1F710E0C4ECD0E004C02297CC
:10010000FE010E941404C23CD107C9F70E94D0032B
:100110000C9418040C94000080E091E00E94C70049
:1001200008958091030190910401049724F580E0E3
:1001300091E06CED75E00E94E1006CED75E080E00F
:1001400090E00E94A90280E091E068EE73E00E94D6
:10015000E1006CED75E080E090E00E94A90280E093
:1001600091E060ED77E00E94E1006CED75E080E0E9
:1001700090E00E94A902089580E091E069E070E0BB
:100180000E949C0110920401109203010895FC0149
:10019000809105018C3090F480838F5F80930501FE
:1001A000815090E0FC01EE0FFF1FE80FF91FEA5F9E
:1001B000FE4F88EB9BE09283818308958FEF8083CD
:1001C0000895FC0120812C30B8F58181992787FDA5
:1001D000909548E850E0481B590B440F551F440FB9
:1001E000551F6417750784F08281992787FD9095C4
:1001F00048E552E0481B590B440F551F440F551F4B
:10020000641775070CF4AB0142505040CA01AA278D
:1002100097FDA095BA2F880F991FAA1FBB1F4FB734
:10022000F89430E0F901EE0FFF1FE20FF31FEA5FD1
:10023000FE4F928381834FBF0895CF92DF92EF925A
:10024000FF921F93CF93DF93EC01162F7A01690180
:1002500088818C3008F064C0862F61E00E943D03E5
:10026000888190E0FC01EE0FFF1FE80FF91FEA5FA5
:10027000FE4F1F738081807C812B808380E292E01F
:100280008E199F0964E070E00E94EB03698380E6A9
:1002900099E08C199D0964E070E00E94EB036A8389
:1002A000A8818A2F6CE00E94DF03682F70E0AB0109
:1002B000440F551F460F571F440F551F440F551F1E
:1002C00020E030E0C901840F951FFC01EE0FFF1FF5
:1002D000E80FF91FEA5FFE4F808186FD15C02F5F92
:1002E0003F4F2C30310571F724C01092800082E01E
:1002F000809381001092850010928400B19A8091C1
:100300006F00826080936F008A2F90E0FC01EE0FF7
:10031000FF1FE80FF91FEA5FFE4F80818064808332
:100320008881DF91CF911F91FF90EF90DF90CF9068
:100330000895672BD1F2E8CF40E252E020E639E0A1
:100340000E941D0108951F920F920FB60F92112463
:100350002F933F934F935F936F937F938F939F93CD
:10036000AF93BF93EF93FF9380912A0187FF05C05E
:1003700010928500109284002BC020912A0133270F
:1003800027FD30958091050190E02817390704F585
:1003900080912A01992787FD9095FC01EE0FFF1FA0
:1003A000E80FF91FEA5FFE4F808186FF11C0809140
:1003B0002A01992787FD9095FC01EE0FFF1FE80F9A
:1003C000F91FEA5FFE4F80818F7360E00E947C031B
:1003D00080912A018F5F80932A0120912A0133277F
:1003E00027FD30958091050190E0281739070CF022
:1003F0004EC080912A018C300CF049C020918400BD
:100400003091850080912A01992787FD9095FC0104
:10041000EE0FFF1FE80FF91FEA5FFE4F8181928107
:10042000280F391F309389002093880080912A017A
:10043000992787FD9095FC01EE0FFF1FE80FF91F2C
:10044000EA5FFE4F808186FF2BC080912A019927A9
:1004500087FD9095FC01EE0FFF1FE80FF91FEA5F83
:10046000FE4F80818F7361E00E947C0319C080E49D
:100470009CE905C08091840090918500049690933A
:100480008900809388008FEF80932A0109C08091B2
:10049000840090918500049680549C4940F3EACFF3
:1004A000FF91EF91BF91AF919F918F917F916F914C
:1004B0005F914F913F912F910F900FBE0F901F9022
:1004C00018951F920F920FB60F9211242F933F93FE
:1004D0008F939F93AF93BF9380912F0190913001A1
:1004E000A0913101B0913201309133010196A11DEB
:1004F000B11D232F2D5F2D3720F02D570196A11D03
:10050000B11D2093330180932F0190933001A0936C
:100510003101B093320180912B0190912C01A09177
:100520002D01B0912E010196A11DB11D80932B01CB
:1005300090932C01A0932D01B0932E01BF91AF9108
:100540009F918F913F912F910F900FBE0F901F9011
:1005500018959B01AC017FB7F89480912B01909185
:100560002C01A0912D01B0912E0166B5A89B05C06C
:100570006F3F19F00196A11DB11D7FBFBA2FA92FA2
:10058000982F8827860F911DA11DB11D62E0880F4D
:10059000991FAA1FBB1F6A95D1F7BC012DC0FFB7D9
:1005A000F89480912B0190912C01A0912D01B09194
:1005B0002E01E6B5A89B05C0EF3F19F00196A11DDD
:1005C000B11DFFBFBA2FA92F982F88278E0F911D1D
:1005D000A11DB11DE2E0880F991FAA1FBB1FEA955C
:1005E000D1F7861B970B885E9340C8F221503040AC
:1005F0004040504068517C4F21153105410551055F
:1006000071F60895789484B5826084BD84B5816064
:1006100084BD85B5826085BD85B5816085BDEEE60A
:10062000F0E0808181608083E1E8F0E010828081E9
:1006300082608083808181608083E0E8F0E0808157
:1006400081608083E1EBF0E0808184608083E0EB77
:10065000F0E0808181608083EAE7F0E0808184605F
:1006600080838081826080838081816080838081BB
:10067000806880831092C1000895CF93DF93482F44
:1006800050E0CA0186569F4FFC0134914A575F4F94
:10069000FA018491882369F190E0880F991FFC0189
:1006A000E859FF4FA591B491FC01EE58FF4FC59159
:1006B000D491662351F42FB7F8948C91932F909591
:1006C00089238C93888189230BC0623061F42FB712
:1006D000F8948C91932F909589238C938881832B08
:1006E00088832FBF06C09FB7F8948C91832B8C937F
:1006F0009FBFDF91CF910895482F50E0CA018255E6
:100700009F4FFC012491CA0186569F4FFC01949192
:100710004A575F4FFA013491332309F440C0222332
:1007200051F1233071F0243028F42130A1F022302F
:1007300011F514C02630B1F02730C1F02430D9F4BF
:1007400004C0809180008F7703C0809180008F7DEE
:100750008093800010C084B58F7702C084B58F7DF0
:1007600084BD09C08091B0008F7703C08091B00034
:100770008F7D8093B000E32FF0E0EE0FFF1FEE5867
:10078000FF4FA591B4912FB7F894662321F48C9173
:100790009095892302C08C91892B8C932FBF08954B
:1007A000CF93DF930E9402030E94BC00C0E0D0E020
:1007B0000E9491002097E1F30E940000F9CF991B5D
:1007C00079E004C0991F961708F0961B881F7A9548
:1007D000C9F78095089597FB092E07260AD077FD63
:1007E00004D00CD006D000201AF4709561957F4F8C
:1007F0000895F6F7909581959F4F0895AA1BBB1B0E
:1008000051E107C0AA1FBB1FA617B70710F0A61B10
:10081000B70B881F991F5A95A9F780959095BC0131
:10082000CD010895EE0FFF1F0590F491E02D09947E
:04083000F894FFCF6A
:00000001FF
