:100000000C9462000C948A000C948A000C948A0070
:100010000C948A000C948A000C948A000C948A0038
:100020000C948A000C948A000C948A000C94370279
:100030000C948A000C948A000C948A000C948A0018
:100040000C94F5020C948A000C948A000C948A009B
:100050000C948A000C948A000C948A000C948A00F8
:100060000C948A000C948A000000000024002700F1
:100070002A0000000000250028002B0000000000DE
:1000800023002600290004040404040404040202DA
:100090000202020203030303030301020408102007
:1000A0004080010204081020010204081020000012
:1000B0000007000201000003040600000000000029
:1000C00000008C0011241FBECFEFD8E0DEBFCDBFF3
:1000D00011E0A0E0B1E0EAE3FDE002C005900D927E
:1000E000A030B107D9F711E0A0E0B1E001C01D9246
:1000F000A433B107E1F710E0C4ECD0E004C02297CC
:10010000FE010E949706C23CD107C9F70E94640411
:100110000C949B060C94000082E091E00E945B012D
:10012000089582E091E06CED75E00E9475010895FC
:10013000AA2797FDA095BA2FBC01CD010E94730597
:1001400020E030E048EC52E40E94D80420E030E0A7
:100150004AEF53E40E94FF0520E030E84BEB54E403
:100160000E9474040E9440059B01AC0182E091E072
:10017000B9010E9475010895AA2797FDA095BA2F8D
:10018000BC01CD010E94730520E030E048EC52E450
:100190000E94D80420E030E04AEF53EC0E94FF05B3
:1001A00020E030E84BEB54E40E9474040E944005C8
:1001B0009B01AC0182E091E0B9010E9475010895B4
:1001C00082E091E069E070E00E94300208950E94B0
:1001D000E000109201011092000108958091000149
:1001E0009091010104970CF063C00E94910089E195
:1001F00090E00E94BC0068EE73E080E090E00E9416
:100200003D0382E390E00E94BC0068EE73E080E072
:1002100090E00E943D038BE490E00E94BC0068EEF9
:1002200073E080E090E00E943D0384E690E00E944D
:10023000BC0068EE73E080E090E00E943D030E9405
:10024000910068EE73E080E090E00E943D0389E158
:1002500090E00E94980068EE73E080E090E00E94D9
:100260003D0382E390E00E94980068EE73E080E036
:1002700090E00E943D038BE490E00E94980068EEBD
:1002800073E080E090E00E943D0384E690E00E94ED
:10029000980068EE73E080E090E00E943D0380915A
:1002A000000190910101019690930101809300015A
:1002B0000E9491000895FC01809105018C3090F41A
:1002C00080838F5F80930501815090E0FC01EE0FE9
:1002D000FF1FE80FF91FEA5FFE4F88EB9BE0928358
:1002E000818308958FEF80830895FC0120812C3055
:1002F000B8F58181992787FD909548E850E0481B23
:10030000590B440F551F440F551F6417750784F090
:100310008281992787FD909548E552E0481B590B4B
:10032000440F551F440F551F641775070CF4AB019C
:1003300042505040CA01AA2797FDA095BA2F880FB6
:10034000991FAA1FBB1F4FB7F89430E0F901EE0FB9
:10035000FF1FE20FF31FEA5FFE4F928381834FBFBF
:100360000895CF92DF92EF92FF921F93CF93DF9386
:10037000EC01162F7A01690188818C3008F064C085
:10038000862F61E00E94D103888190E0FC01EE0F8E
:10039000FF1FE80FF91FEA5FFE4F1F738081807C0B
:1003A000812B808380E292E08E199F0964E070E0E7
:1003B0000E946E06698380E699E08C199D0964E0CD
:1003C00070E00E946E066A83A8818A2F6CE00E940A
:1003D0006206682F70E0AB01440F551F460F571F90
:1003E000440F551F440F551F20E030E0C901840F12
:1003F000951FFC01EE0FFF1FE80FF91FEA5FFE4F8C
:10040000808186FD15C02F5F3F4F2C30310571F77D
:1004100024C01092800082E08093810010928500B9
:1004200010928400B19A80916F00826080936F0077
:100430008A2F90E0FC01EE0FFF1FE80FF91FEA5F23
:10044000FE4F8081806480838881DF91CF911F91EE
:10045000FF90EF90DF90CF900895672BD1F2E8CF17
:1004600040E252E020E639E00E94B10108951F9277
:100470000F920FB60F9211242F933F934F935F93D8
:100480006F937F938F939F93AF93BF93EF93FF935C
:1004900080912A0187FF05C0109285001092840088
:1004A0002BC020912A01332727FD3095809105012B
:1004B00090E02817390704F580912A01992787FDD4
:1004C0009095FC01EE0FFF1FE80FF91FEA5FFE4F4A
:1004D000808186FF11C080912A01992787FD909520
:1004E000FC01EE0FFF1FE80FF91FEA5FFE4F80814E
:1004F0008F7360E00E94100480912A018F5F8093C7
:100500002A0120912A01332727FD3095809105018A
:1005100090E0281739070CF04EC080912A018C30EA
:100520000CF049C0209184003091850080912A010F
:10053000992787FD9095FC01EE0FFF1FE80FF91F2B
:10054000EA5FFE4F81819281280F391F3093890025
:100550002093880080912A01992787FD9095FC01BE
:10056000EE0FFF1FE80FF91FEA5FFE4F808186FF45
:100570002BC080912A01992787FD9095FC01EE0FF1
:10058000FF1FE80FF91FEA5FFE4F80818F7361E064
:100590000E94100419C080E49CE905C08091840089
:1005A00090918500049690938900809388008FEF46
:1005B00080932A0109C0809184009091850004965F
:1005C00080549C4940F3EACFFF91EF91BF91AF91E6
:1005D0009F918F917F916F915F914F913F912F915B
:1005E0000F900FBE0F901F9018951F920F920FB68D
:1005F0000F9211242F933F938F939F93AF93BF93A9
:1006000080912F0190913001A0913101B091320180
:10061000309133010196A11DB11D232F2D5F2D3780
:1006200020F02D570196A11DB11D20933301809319
:100630002F0190933001A0933101B093320180914A
:100640002B0190912C01A0912D01B0912E010196CA
:10065000A11DB11D80932B0190932C01A0932D011E
:10066000B0932E01BF91AF919F918F913F912F91A8
:100670000F900FBE0F901F9018959B01AC017FB794
:10068000F89480912B0190912C01A0912D01B091B3
:100690002E0166B5A89B05C06F3F19F00196A11DFC
:1006A000B11D7FBFBA2FA92F982F8827860F911DC4
:1006B000A11DB11D62E0880F991FAA1FBB1F6A957B
:1006C000D1F7BC012DC0FFB7F89480912B01909118
:1006D0002C01A0912D01B0912E01E6B5A89B05C07B
:1006E000EF3F19F00196A11DB11DFFBFBA2FA92F31
:1006F000982F88278E0F911DA11DB11DE2E0880F54
:10070000991FAA1FBB1FEA95D1F7861B970B885E1E
:100710009340C8F2215030404040504068517C4FD7
:10072000211531054105510571F60895789484B578
:10073000826084BD84B5816084BD85B5826085BDDD
:1007400085B5816085BDEEE6F0E0808181608083C3
:10075000E1E8F0E0108280818260808380818160A6
:100760008083E0E8F0E0808181608083E1EBF0E06D
:10077000808184608083E0EBF0E080818160808311
:10078000EAE7F0E0808184608083808182608083FA
:100790008081816080838081806880831092C10025
:1007A0000895CF93DF93482F50E0CA0186569F4F9C
:1007B000FC0134914A575F4FFA018491882369F113
:1007C00090E0880F991FFC01E859FF4FA591B49163
:1007D000FC01EE58FF4FC591D491662351F42FB719
:1007E000F8948C91932F909589238C9388818923F9
:1007F0000BC0623061F42FB7F8948C91932F9095D1
:1008000089238C938881832B88832FBF06C09FB751
:10081000F8948C91832B8C939FBFDF91CF91089597
:10082000482F50E0CA0182559F4FFC012491CA0114
:1008300086569F4FFC0194914A575F4FFA013491BD
:10084000332309F440C0222351F1233071F02430C6
:1008500028F42130A1F0223011F514C02630B1F077
:100860002730C1F02430D9F404C0809180008F7704
:1008700003C0809180008F7D8093800010C084B57C
:100880008F7702C084B58F7D84BD09C08091B00090
:100890008F7703C08091B0008F7D8093B000E32FED
:1008A000F0E0EE0FFF1FEE58FF4FA591B4912FB768
:1008B000F894662321F48C919095892302C08C9141
:1008C000892B8C932FBF0895CF93DF930E949603BB
:1008D0000E94E700C0E0D0E00E94EE002097E1F324
:1008E0000E940000F9CF5058BB27AA270ED04DC157
:1008F0003ED130F043D120F031F49F3F11F41EF48B
:1009000033C10EF4E095E7FB29C1E92F4FD180F305
:10091000BA17620773078407950718F071F49EF5FC
:1009200067C10EF4E0950B2EBA2FA02D0B01B90173
:1009300090010C01CA01A0011124FF27591B99F055
:10094000593F50F4503E68F11A16F040A22F232F61
:10095000342F4427585FF3CF469537952795A795B1
:10096000F0405395C9F77EF41F16BA0B620B730B58
:10097000840BBAF09150A1F0FF0FBB1F661F771FC9
:10098000881FC2F70EC0BA0F621F731F841F48F47E
:10099000879577956795B795F7959E3F08F0B3CF04
:1009A0009395880F08F09927EE0F979587950895EE
:1009B0000CD0EBC0E3D040F0DAD030F021F45F3F50
:1009C00019F0CCC0511115C1CFC0F0D098F39923C4
:1009D000C9F35523B1F3951B550BBB27AA27621703
:1009E0007307840738F09F5F5F4F220F331F441F48
:1009F000AA1FA9F333D00E2E3AF0E0E830D0915080
:100A00005040E695001CCAF729D0FE2F27D0660F6C
:100A1000771F881FBB1F261737074807AB07B0E8AB
:100A200009F0BB0B802DBF01FF2793585F4F2AF0C1
:100A30009E3F510568F092C0DCC05F3FECF3983EEA
:100A4000DCF3869577956795B795F7959F5FC9F71E
:100A5000880F911D9695879597F90895E1E0660FA7
:100A6000771F881FBB1F621773078407BA0720F020
:100A7000621B730B840BBA0BEE1F88F7E095089589
:100A800004D06894B111B5C0089598D088F09F57EC
:100A900090F0B92F9927B751A0F0D1F0660F771FCA
:100AA000881F991F1AF0BA95C9F712C0B13081F0AA
:100AB0009FD0B1E008959CC0672F782F8827B85F3A
:100AC00039F0B93FCCF3869577956795B395D9F70B
:100AD0003EF490958095709561957F4F8F4F9F4F15
:100AE0000895E89409C097FB3EF490958095709521
:100AF00061957F4F8F4F9F4F9923A9F0F92F96E96A
:100B0000BB279395F695879577956795B795F111DE
:100B1000F8CFFAF4BB0F11F460FF1BC06F5F7F4F7B
:100B20008F4F9F4F16C0882311F096E911C077238D
:100B300021F09EE8872F762F05C0662371F096E896
:100B4000862F70E060E02AF09A95660F771F881F65
:100B5000DAF7880F9695879597F9089597F99F6723
:100B600080E870E060E008959FEF80EC0895002435
:100B70000A941616170618060906089500240A9402
:100B800012161306140605060895092E0394000C88
:100B900011F4882352F0BB0F40F4BF2B11F460FF17
:100BA00004C06F5F7F4F8F4F9F4F089557FD905840
:100BB000440F551F59F05F3F71F04795880F97FB21
:100BC000991F61F09F3F79F08795089512161306DB
:100BD0001406551FF2CF4695F1DF08C0161617060A
:100BE0001806991FF1CF869571056105089408953F
:100BF000E894BB2766277727CB0197F908950BD098
:100C0000C4CFB5DF28F0BADF18F0952309F0A6CFDE
:100C1000ABCF1124EECFCADFA0F3959FD1F3950F90
:100C200050E0551F629FF001729FBB27F00DB11D70
:100C3000639FAA27F00DB11DAA1F649F6627B00D00
:100C4000A11D661F829F2227B00DA11D621F739FE9
:100C5000B00DA11D621F839FA00D611D221F749FF7
:100C60003327A00D611D231F849F600D211D822F3E
:100C7000762F6A2F11249F5750408AF0E1F0882385
:100C80004AF0EE0FFF1FBB1F661F771F881F915092
:100C90005040A9F79E3F510570F060CFAACF5F3F4B
:100CA000ECF3983EDCF3869577956795B795F795C5
:100CB000E7959F5FC1F7FE2B880F911D969587954D
:100CC00097F90895991B79E004C0991F961708F0C9
:100CD000961B881F7A95C9F78095089597FB092E72
:100CE00007260AD077FD04D00CD006D000201AF4D5
:100CF000709561957F4F0895F6F7909581959F4F78
:100D00000895AA1BBB1B51E107C0AA1FBB1FA61752
:100D1000B70710F0A61BB70B881F991F5A95A9F7A4
:100D200080959095BC01CD010895EE0FFF1F0590B1
:0A0D3000F491E02D0994F894FFCF30
:00000001FF
