:100000000C9463000C948B000C948B000C948B006C
:100010000C948B000C948B000C948B000C948B0034
:100020000C948B000C948B000C948B000C9413029A
:100030000C948B000C948B000C948B000C948B0014
:100040000C94D1020C948B000C94DD040C942B05C1
:100050000C948B000C948B000C948B000C948B00F4
:100060000C948B000C948B000000000024002700EF
:100070002A0000000000250028002B0000000000DE
:1000800023002600290004040404040404040202DA
:100090000202020203030303030301020408102007
:1000A0004080010204081020010204081020000012
:1000B0000007000201000003040600000000000029
:1000C00000008D00970611241FBECFEFD8E0DEBFE1
:1000D000CDBF11E0A0E0B1E0E4E4F4E102C005909E
:1000E0000D92A032B107D9F712E0A0E2B1E001C051
:1000F0001D92A330B107E1F710E0C6ECD0E004C0D8
:100100002297FE010E941C0AC23CD107C9F70E9437
:10011000ED060C94200A0C94000082E291E00E940B
:10012000370185E291E00E94370108950F931F93F4
:100130008C0185E291E0B8010E94510110932901E0
:10014000009328011F910F91089585E291E06AE0E4
:1001500070E00E940C0280ED97E00E94960065E03E
:1001600070E080E090E00E94190388EE93E00E9426
:10017000960065E070E080E090E00E9419038CED4D
:1001800095E00E9496008CED95E090932901809374
:100190002801089582E291E069E070E00E940C027B
:1001A0000895EF92FF920F931F9381EE91E00E94CA
:1001B000ED05181619060CF040C081EE91E00E9482
:1001C0001E068032D1F585E061E020E432E44FE0A4
:1001D00050E00E9440047B018C0181EE91E060E0E0
:1001E00071E00E94090881EE91E061E071E00E94F7
:1001F0000608C801B7010E94B70820E030E043E1DB
:1002000053E40E941C082CE53FE842E250E40E94BF
:1002100043090E948408AB01BC01662757FD609525
:10022000762F81EE91E02AE030E00E94C60781EE51
:1002300091E06CE071E00E9409081F910F91FF901E
:10024000EF9008950E94CA000E94A500109221011B
:100250001092200181EE91E040E855E260E070E00C
:100260000E94660585E060E00E94AD030895FC01F0
:1002700080912A018C3090F480838F5F80932A01D3
:10028000815090E0FC01EE0FFF1FE80FF91FE55DC4
:10029000FE4F88EB9BE09283818308958FEF8083EC
:1002A0000895FC0120812C30B8F58181992787FDC4
:1002B000909548E850E0481B590B440F551F440FD8
:1002C000551F6417750784F08281992787FD9095E3
:1002D00048E552E0481B590B440F551F440F551F6A
:1002E000641775070CF4AB0142505040CA01AA27AD
:1002F00097FDA095BA2F880F991FAA1FBB1F4FB754
:10030000F89430E0F901EE0FFF1FE20FF31FE55DF7
:10031000FE4F928381834FBF0895CF92DF92EF9279
:10032000FF921F93CF93DF93EC01162F7A0169019F
:1003300088818C3008F064C0862F61E00E94AD0394
:10034000888190E0FC01EE0FFF1FE80FF91FE55DCB
:10035000FE4F1F738081807C812B808380E292E03E
:100360008E199F0964E070E00E94D109698380E6DC
:1003700099E08C199D0964E070E00E94D1096A83BC
:10038000A8818A2F6CE00E94C509682F70E0AB013C
:10039000440F551F460F571F440F551F440F551F3D
:1003A00020E030E0C901840F951FFC01EE0FFF1F14
:1003B000E80FF91FE55DFE4F808186FD15C02F5FB8
:1003C0003F4F2C30310571F724C01092800082E03D
:1003D000809381001092850010928400B19A8091E0
:1003E0006F00826080936F008A2F90E0FC01EE0F17
:1003F000FF1FE80FF91FE55DFE4F80818064808359
:100400008881DF91CF911F91FF90EF90DF90CF9087
:100410000895672BD1F2E8CF40E252E020E639E0C0
:100420000E948D0108951F920F920FB60F92112412
:100430002F933F934F935F936F937F938F939F93EC
:10044000AF93BF93EF93FF9380914F0187FF05C058
:1004500010928500109284002BC020914F01332709
:1004600027FD309580912A0190E02817390704F57F
:1004700080914F01992787FD9095FC01EE0FFF1F9A
:10048000E80FF91FE55DFE4F808186FF11C0809166
:100490004F01992787FD9095FC01EE0FFF1FE80F94
:1004A000F91FE55DFE4F80818F7360E00E94EC03D1
:1004B00080914F018F5F80934F0120914F0133272F
:1004C00027FD309580912A0190E0281739070CF01C
:1004D0004EC080914F018C300CF049C020918400B7
:1004E0003091850080914F01992787FD9095FC01FF
:1004F000EE0FFF1FE80FF91FE55DFE4F818192812E
:10050000280F391F309389002093880080914F0174
:10051000992787FD9095FC01EE0FFF1FE80FF91F4B
:10052000E55DFE4F808186FF2BC080914F019927AA
:1005300087FD9095FC01EE0FFF1FE80FF91FE55DA9
:10054000FE4F80818F7361E00E94EC0319C080E44C
:100550009CE905C080918400909185000496909359
:100560008900809388008FEF80934F0109C08091AC
:10057000840090918500049680549C4940F3EACF12
:10058000FF91EF91BF91AF919F918F917F916F916B
:100590005F914F913F912F910F900FBE0F901F9041
:1005A00018951F920F920FB60F9211242F933F931D
:1005B0008F939F93AF93BF93809154019091550176
:1005C000A0915601B0915701309158010196A11D9B
:1005D000B11D232F2D5F2D3720F02D570196A11D22
:1005E000B11D209358018093540190935501A0931D
:1005F0005601B09357018091500190915101A09103
:100600005201B09153010196A11DB11D809350017B
:1006100090935101A0935201B0935301BF91AF91B8
:100620009F918F913F912F910F900FBE0F901F9030
:1006300018959B01AC017FB7F8948091500190917F
:100640005101A0915201B091530166B5A89B05C01C
:100650006F3F19F00196A11DB11D7FBFBA2FA92FC1
:10066000982F8827860F911DA11DB11D62E0880F6C
:10067000991FAA1FBB1F6A95D1F7BC012DC0FFB7F8
:10068000F8948091500190915101A0915201B09144
:100690005301E6B5A89B05C0EF3F19F00196A11DD7
:1006A000B11DFFBFBA2FA92F982F88278E0F911D3C
:1006B000A11DB11DE2E0880F991FAA1FBB1FEA957B
:1006C000D1F7861B970B885E9340C8F221503040CB
:1006D0004040504068517C4F21153105410551057E
:1006E00071F60895789484B5826084BD84B5816084
:1006F00084BD85B5826085BD85B5816085BDEEE62A
:10070000F0E0808181608083E1E8F0E01082808108
:1007100082608083808181608083E0E8F0E0808176
:1007200081608083E1EBF0E0808184608083E0EB96
:10073000F0E0808181608083EAE7F0E0808184607E
:1007400080838081826080838081816080838081DA
:10075000806880831092C1000895CF93DF93482F63
:1007600050E0CA0186569F4FFC0134914A575F4FB3
:10077000FA018491882369F190E0880F991FFC01A8
:10078000E859FF4FA591B491FC01EE58FF4FC59178
:10079000D491662351F42FB7F8948C91932F9095B0
:1007A00089238C93888189230BC0623061F42FB731
:1007B000F8948C91932F909589238C938881832B27
:1007C00088832FBF06C09FB7F8948C91832B8C939E
:1007D0009FBFDF91CF910895482F50E0CA01825505
:1007E0009F4FFC012491CA0186569F4FFC019491B2
:1007F0004A575F4FFA013491332309F440C0222352
:1008000051F1233071F0243028F42130A1F022304E
:1008100011F514C02630B1F02730C1F02430D9F4DE
:1008200004C0809180008F7703C0809180008F7D0D
:100830008093800010C084B58F7702C084B58F7D0F
:1008400084BD09C08091B0008F7703C08091B00053
:100850008F7D8093B000E32FF0E0EE0FFF1FEE5886
:10086000FF4FA591B4912FB7F894662321F48C9192
:100870009095892302C08C91892B8C932FBF08956A
:100880008F929F92AF92BF92CF92DF92EF92FF92A0
:100890000F931F93CF93DF93A82FB0E0CD0186561F
:1008A0009F4FFC018490AA57BF4FFD01849166239E
:1008B00011F4992401C0982C6FEFA62E6FEFB62E7D
:1008C0006FEFC62E6FE0D62EA222B322C422D5220D
:1008D000682F70E0660F771F64587F4FEE24FF2467
:1008E0008701FB01A591B4910BC0EA14FB040C0530
:1008F0001D0509F44EC00894E11CF11C011D111DD9
:100900008C918821891589F30CC0EA14FB040C052D
:100910001D0509F43EC00894E11CF11C011D111DC8
:1009200003C0FB01A591B4918C918821891569F7C9
:1009300020E030E040E050E0FB01C591D4910FC0D1
:10094000DA01C9018E0D9F1DA01FB11F8A159B05DD
:10095000AC05BD05F1F02F5F3F4F4F4F5F4F8881D2
:100960008821891569F3CA01B90125E130E040E029
:1009700050E00E94A6099B01AC01205F3F4F4F4F02
:100980005F4F84E056954795379527958A95D1F71F
:1009900004C020E030E040E050E0B901CA01DF913E
:1009A000CF911F910F91FF90EF90DF90CF90BF906C
:1009B000AF909F908F90089508951F920F920FB659
:1009C0000F9211242F933F934F938F939F93EF9305
:1009D000FF938091C00082FD1DC04091C600209110
:1009E000990130919A012F5F3F4F2F7330708091A2
:1009F0009B0190919C012817390771F0E0919901B2
:100A0000F0919A01E75AFE4F408330939A01209368
:100A1000990102C08091C600FF91EF919F918F9143
:100A20004F913F912F910F900FBE0F901F901895EF
:100A3000E091ED01F091EE01E05CFF4F8191919129
:100A400020813181821B930B8F739070892B11F061
:100A50000E94DC0408951F920F920FB60F9211248A
:100A60002F933F938F939F93EF93FF932091DD01FB
:100A70003091DE018091DF019091E0012817390764
:100A800031F48091C1008F7D8093C10014C0E0914A
:100A9000DF01F091E001E356FE4F20818091DF01FC
:100AA0009091E00101968F7390709093E001809394
:100AB000DF012093C600FF91EF919F918F913F91AD
:100AC0002F910F900FBE0F901F901895AF92BF926D
:100AD000DF92EF92FF920F931F93CF93DF93EC017E
:100AE0007A018B01DD24403081EE580780E06807F1
:100AF00080E0780711F0DD24D39491E0A92EB12C89
:100B0000EC89FD89DD2069F0C50108A002C0880FCD
:100B1000991F0A94E2F7808360E079E08DE390E02A
:100B200005C0108260E874E88EE190E0A8019701AA
:100B30000E94E4092150304040405040569547956E
:100B40003795279580E12030380720F0DD2011F01F
:100B5000DD24D6CFE889F9893083EA89FB892083AF
:100B600019A2EE89FF89408121E030E0C9010C8C97
:100B700002C0880F991F0A94E2F7482B4083EE8940
:100B8000FF894081C9010D8C02C0880F991F0A940A
:100B9000E2F7482B4083EE89FF894081C9010E8C22
:100BA00002C0880F991F0A94E2F7482B4083EE8910
:100BB000FF8980810F8C02C0220F331F0A94E2F755
:100BC000209528232083DF91CF911F910F91FF90D3
:100BD000EF90DF90BF90AF900895DC011C96ED91EF
:100BE000FC911D97E05CFF4F2191319180819181B3
:100BF000281B390B2F733070C9010895DC011C9636
:100C0000ED91FC911D97E05CFF4F20813181E05414
:100C1000F040DF01AE5BBF4F8D919C91119728177B
:100C2000390719F42FEF3FEF07C08D919C91E80F22
:100C3000F91F8081282F30E0C9010895DC011C963E
:100C4000ED91FC911D97E05CFF4F20813181E054D4
:100C5000F040DF01AE5BBF4F8D919C91119728173B
:100C6000390719F42FEF3FEF10C08D919C91119728
:100C7000E80FF91F20818D919C91119701968F7338
:100C8000907011969C938E9330E0C9010895DC0119
:100C900091968C919197882339F05496ED91FC911F
:100CA0005597808186FFF9CF91961C920895CF9336
:100CB000DF93EC01EE85FF85E05CFF4F2081318101
:100CC000E054F0402F5F3F4F2F733070DF01AE5B79
:100CD000BF4F8D919C91119728173907D1F3E05C94
:100CE000FF4F80819181E054F040E80FF91F60834D
:100CF000EE85FF85E05CFF4F31832083EE89FF891D
:100D0000208181E090E00F8C02C0880F991F0A9427
:100D1000E2F7282B208381E089A3EC89FD8980817B
:100D20008064808381E090E0DF91CF9108951092FC
:100D3000E4011092E30188EE93E0A0E0B0E080933C
:100D4000E5019093E601A093E701B093E80184E107
:100D500091E09093E2018093E10189E591E0909325
:100D6000EE018093ED018DE991E09093F001809385
:100D7000EF0185EC90E09093F2018093F10184EC17
:100D800090E09093F4018093F30180EC90E09093D5
:100D9000F6018093F50181EC90E09093F801809347
:100DA000F70182EC90E09093FA018093F90186ECD0
:100DB00090E09093FC018093FB0184E08093FD011F
:100DC00083E08093FE0187E08093FF0185E08093BC
:100DD000000281E0809301020895CF93DF930E9487
:100DE00072030E942201C8E1D5E00E94D100209741
:100DF000E1F30E941805F9CFCF92DF92EF92FF92B4
:100E00000F931F93CF93DF937C016B018A01C0E0A6
:100E1000D0E00FC0D6016D916D01D701ED91FC912D
:100E20000190F081E02DC7010995C80FD91F01502D
:100E300010400115110571F7CE01DF91CF911F917F
:100E40000F91FF90EF90DF90CF900895EF92FF9277
:100E50000F931F938C01DC01ED91FC910190F081C7
:100E6000E02D6DE009957C01D801ED91FC91019098
:100E7000F081E02DC8016AE009959C012E0D3F1D0F
:100E8000C9011F910F91FF90EF900895CF93DF93C9
:100E9000EC016115710519F420E030E00FC0DB01B1
:100EA0000D900020E9F71197A61BB70BE881F98197
:100EB0000280F381E02DAD0109959C01C901DF910C
:100EC000CF9108954F925F927F928F929F92AF92AF
:100ED000BF92CF92DF92EF92FF920F931F93DF9317
:100EE000CF93CDB7DEB7A1970FB6F894DEBF0FBE94
:100EF000CDBF2C01742ECB01223008F42AE019A2B8
:100F000031E2C32ED12CCC0EDD1E822E9924AA24D0
:100F1000BB24672D752FA50194010E94E409790176
:100F20008A01C801B701A50194010E94A609472DB5
:100F3000461B0894C108D1084A3014F4405D01C032
:100F4000495CF6014083E114F1040105110521F02B
:100F50007E2C5F2DC801DDCFC201B6010E9446077D
:100F6000A1960FB6F894DEBF0FBECDBFCF91DF9133
:100F70001F910F91FF90EF90DF90CF90BF90AF90B7
:100F80009F908F907F905F904F900895CF92DF92C7
:100F9000EF92FF920F931F93CF93DF93EC016A01BF
:100FA0007B012115310541F4E881F9810190F0813F
:100FB000E02D642F09951FC02A303105D1F477FF49
:100FC00017C0E881F9810190F081E02D6DE209956B
:100FD0008C0144275527BA014C195D096E097F0918
:100FE000CE012AE00E9462079801280F391F04C031
:100FF0002AE00E9462079C01C901DF91CF911F91F5
:101000000F91FF90EF90DF90CF9008950E944607D8
:101010000895EF92FF920F931F937C010E94460761
:101020008C01C7010E942607080F191FC8011F91D4
:101030000F91FF90EF9008950CD0EBC0E3D040F0FB
:10104000DAD030F021F45F3F19F0CCC0511115C156
:10105000CFC0F0D098F39923C9F35523B1F3951B72
:10106000550BBB27AA2762177307840738F09F5FC9
:101070005F4F220F331F441FAA1FA9F333D00E2E38
:101080003AF0E0E830D091505040E695001CCAF7A5
:1010900029D0FE2F27D0660F771F881FBB1F26176A
:1010A00037074807AB07B0E809F0BB0B802DBF013D
:1010B000FF2793585F4F2AF09E3F510568F092C07A
:1010C000DCC05F3FECF3983EDCF38695779567953F
:1010D000B795F7959F5FC9F7880F911D96958795EE
:1010E00097F90895E1E0660F771F881FBB1F62170D
:1010F00073078407BA0720F0621B730B840BBA0BCB
:10110000EE1F88F7E095089504D06894B111B5C03A
:10111000089598D088F09F5790F0B92F9927B7512C
:10112000A0F0D1F0660F771F881F991F1AF0BA95AB
:10113000C9F712C0B13081F09FD0B1E008959CC0D2
:10114000672F782F8827B85F39F0B93FCCF38695A1
:1011500077956795B395D9F73EF4909580957095FE
:1011600061957F4F8F4F9F4F0895E89409C097FB7B
:101170003EF490958095709561957F4F8F4F9F4F6E
:101180009923A9F0F92F96E9BB279395F6958795B2
:1011900077956795B795F111F8CFFAF4BB0F11F475
:1011A00060FF1BC06F5F7F4F8F4F9F4F16C088231C
:1011B00011F096E911C0772321F09EE8872F762F52
:1011C00005C0662371F096E8862F70E060E02AF093
:1011D0009A95660F771F881FDAF7880F969587957F
:1011E00097F9089597F99F6780E870E060E00895A7
:1011F0009FEF80EC089500240A941616170618062F
:101200000906089500240A9412161306140605060A
:101210000895092E0394000C11F4882352F0BB0F9B
:1012200040F4BF2B11F460FF04C06F5F7F4F8F4FFE
:101230009F4F089557FD9058440F551F59F05F3F39
:1012400071F04795880F97FB991F61F09F3F79F0E8
:1012500087950895121613061406551FF2CF46956A
:10126000F1DF08C0161617061806991FF1CF8695EC
:101270007105610508940895E894BB2766277727D0
:10128000CB0197F908950BD0C4CFB5DF28F0BADFB2
:1012900018F0952309F0A6CFABCF1124EECFCADF0B
:1012A000A0F3959FD1F3950F50E0551F629FF00179
:1012B000729FBB27F00DB11D639FAA27F00DB11DD2
:1012C000AA1F649F6627B00DA11D661F829F22275B
:1012D000B00DA11D621F739FB00DA11D621F839FE2
:1012E000A00D611D221F749F3327A00D611D231FB8
:1012F000849F600D211D822F762F6A2F11249F5706
:1013000050408AF0E1F088234AF0EE0FFF1FBB1F28
:10131000661F771F881F91505040A9F79E3F5105C7
:1013200070F060CFAACF5F3FECF3983EDCF3869578
:1013300077956795B795F795E7959F5FC1F7FE2B72
:10134000880F911D9695879597F90895629FD00112
:10135000739FF001829FE00DF11D649FE00DF11D70
:10136000929FF00D839FF00D749FF00D659FF00D1F
:101370009927729FB00DE11DF91F639FB00DE11D0C
:10138000F91FBD01CF0111240895991B79E004C014
:10139000991F961708F0961B881F7A95C9F78095B4
:1013A000089597FB092E07260AD077FD04D02ED08A
:1013B00006D000201AF4709561957F4F0895F6F7D6
:1013C000909581959F4F0895A1E21A2EAA1BBB1BF1
:1013D000FD010DC0AA1FBB1FEE1FFF1FA217B30701
:1013E000E407F50720F0A21BB30BE40BF50B661F17
:1013F000771F881F991F1A9469F7609570958095DB
:1014000090959B01AC01BD01CF010895AA1BBB1BA8
:1014100051E107C0AA1FBB1FA617B70710F0A61BF4
:10142000B70B881F991F5A95A9F780959095BC0115
:10143000CD010895EE0FFF1F0590F491E02D099462
:04144000F894FFCF4E
:101444000064697374616E63653A200020636D0003
:10145400000000005706FC06ED051E06FE054706C3
:00000001FF
